{
    "contractName": "TodoList",
    "abi": [
        {
            "inputs": [
                {
                    "internalType": "string",
                    "name": "_content",
                    "type": "string"
                }
            ],
            "name": "addTask",
            "outputs": [],
            "stateMutability": "nonpayable",
            "type": "function"
        },
        {
            "inputs": [],
            "name": "getAllTasks",
            "outputs": [
                {
                    "components": [
                        {
                            "internalType": "uint256",
                            "name": "id",
                            "type": "uint256"
                        },
                        {
                            "internalType": "string",
                            "name": "content",
                            "type": "string"
                        },
                        {
                            "internalType": "bool",
                            "name": "completed",
                            "type": "bool"
                        }
                    ],
                    "internalType": "struct TodoList.Task[]",
                    "name": "",
                    "type": "tuple[]"
                }
            ],
            "stateMutability": "view",
            "type": "function"
        },
        {
            "inputs": [
                {
                    "internalType": "uint256",
                    "name": "_id",
                    "type": "uint256"
                }
            ],
            "name": "getTask",
            "outputs": [
                {
                    "internalType": "uint256",
                    "name": "",
                    "type": "uint256"
                },
                {
                    "internalType": "string",
                    "name": "",
                    "type": "string"
                },
                {
                    "internalType": "bool",
                    "name": "",
                    "type": "bool"
                }
            ],
            "stateMutability": "view",
            "type": "function"
        },
        {
            "inputs": [],
            "name": "taskCount",
            "outputs": [
                {
                    "internalType": "uint256",
                    "name": "",
                    "type": "uint256"
                }
            ],
            "stateMutability": "view",
            "type": "function"
        },
        {
            "inputs": [
                {
                    "internalType": "uint256",
                    "name": "",
                    "type": "uint256"
                }
            ],
            "name": "tasks",
            "outputs": [
                {
                    "internalType": "uint256",
                    "name": "id",
                    "type": "uint256"
                },
                {
                    "internalType": "string",
                    "name": "content",
                    "type": "string"
                },
                {
                    "internalType": "bool",
                    "name": "completed",
                    "type": "bool"
                }
            ],
            "stateMutability": "view",
            "type": "function"
        },
        {
            "inputs": [
                {
                    "internalType": "uint256",
                    "name": "_id",
                    "type": "uint256"
                }
            ],
            "name": "toggleCompleted",
            "outputs": [],
            "stateMutability": "nonpayable",
            "type": "function"
        }
    ],
    "bytecode": "608080604052346015576106bf908161001a8239f35b5f80fdfe60806040526004361015610011575f80fd5b5f3560e01c80631d65e77e14610467578063455f50241461041f57806367238562146101ef578063779900b4146100cc5780638d9776721461007c5763b6cb58a51461005b575f80fd5b34610078575f366003190112610078576020600154604051908152f35b5f80fd5b34610078576020366003190112610078576004355f54811015610078576100a290610531565b5080546100c860ff60026100b8600186016105b5565b94015416604051938493846104cd565b0390f35b34610078575f366003190112610078575f5467ffffffffffffffff81116101db576040519061010160208260051b018361050f565b8082526020820190815f80527f290decd9548b62a8d60345a988386fc84ba6bc95484008f6362f93160ef3e5635f915b8383106101bd57848660405191829160208301906020845251809152604083019060408160051b85010192915f905b82821061016f57505050500390f35b919360019193955060208091603f19898203018552875190815181526040806101a58585015160608786015260608501906104a9565b93015115159101529601920192018594939192610160565b600360206001926101cd85610655565b815201920192019190610131565b634e487b7160e01b5f52604160045260245ffd5b346100785760203660031901126100785760043567ffffffffffffffff8111610078573660238201121561007857806004013567ffffffffffffffff81116101db5760405191610249601f8301601f19166020018461050f565b818352366024838301011161007857815f92602460209301838601378301015260015460405190610279826104f3565b815260208101918252604081015f81525f54680100000000000000008110156101db578060016102ab92015f55610531565b92909261040c5751825560018201925192835167ffffffffffffffff81116101db576102d7825461057d565b601f81116103c7575b506020601f821160011461035e579080600294939261032a975f92610353575b50508160011b915f199060031b1c19161790555b51151591019060ff801983541691151516179055565b6001545f19811461033f576001016001555f80f35b634e487b7160e01b5f52601160045260245ffd5b015190508780610300565b601f19821695835f52815f20965f5b8181106103af5750966001928492600297969561032a9a10610397575b505050811b019055610314565b01515f1960f88460031b161c1916905587808061038a565b8383015189556001909801976020938401930161036d565b825f5260205f20601f830160051c81019160208410610402575b601f0160051c01905b8181106103f757506102e0565b5f81556001016103ea565b90915081906103e1565b634e487b7160e01b5f525f60045260245ffd5b3461007857602036600319011261007857610465600435600261045260ff8261044785610531565b500154161592610531565b50019060ff801983541691151516179055565b005b346100785760203660031901126100785761048c610486600435610531565b50610655565b80516100c8604060208401519301511515604051938493846104cd565b805180835260209291819084018484015e5f828201840152601f01601f1916010190565b916104eb9060409295949584526060602085015260608401906104a9565b931515910152565b6060810190811067ffffffffffffffff8211176101db57604052565b90601f8019910116810190811067ffffffffffffffff8211176101db57604052565b5f54811015610569575f8080526003919091027f290decd9548b62a8d60345a988386fc84ba6bc95484008f6362f93160ef3e5630191565b634e487b7160e01b5f52603260045260245ffd5b90600182811c921680156105ab575b602083101461059757565b634e487b7160e01b5f52602260045260245ffd5b91607f169161058c565b9060405191825f8254926105c88461057d565b808452936001811690811561063357506001146105ef575b506105ed9250038361050f565b565b90505f9291925260205f20905f915b8183106106175750509060206105ed928201015f6105e0565b60209193508060019154838589010152019101909184926105fe565b9050602092506105ed94915060ff191682840152151560051b8201015f6105e0565b90604051610662816104f3565b604060ff600283958054855261067a600182016105b5565b6020860152015416151591015256fea2646970667358221220f6142a714c2203e6f46341ea189d77cec33c3d2637a2ef4a09b48387d1fdbfb164736f6c634300081c0033",
    "sourcePath": "d:/projects/Blockchain/Todo_list/todo-blockchain/contracts/TodoList.sol",
    "compiler": {
        "name": "solc",
        "version": "0.8.28+commit.7893614a"
    },
    "functionHashes": {
        "addTask(string)": "67238562",
        "getAllTasks()": "779900b4",
        "getTask(uint256)": "1d65e77e",
        "taskCount()": "b6cb58a5",
        "tasks(uint256)": "8d977672",
        "toggleCompleted(uint256)": "455f5024"
    },
    "gasEstimates": {
        "creation": {
            "codeDepositCost": "345400",
            "executionCost": "387",
            "totalCost": "345787"
        },
        "external": {
            "addTask(string)": "infinite",
            "getAllTasks()": "infinite",
            "getTask(uint256)": "infinite",
            "taskCount()": "2355",
            "tasks(uint256)": "infinite",
            "toggleCompleted(uint256)": "infinite"
        }
    }
}