{
  "_format": "hh-sol-artifact-1",
  "contractName": "TodoList",
  "sourceName": "contracts/TodoList.sol",
  "abi": [
    {
      "inputs": [
        {
          "internalType": "string",
          "name": "_content",
          "type": "string"
        }
      ],
      "name": "addTask",
      "outputs": [],
      "stateMutability": "nonpayable",
      "type": "function"
    },
    {
      "inputs": [],
      "name": "getTasks",
      "outputs": [
        {
          "components": [
            {
              "internalType": "string",
              "name": "content",
              "type": "string"
            },
            {
              "internalType": "bool",
              "name": "completed",
              "type": "bool"
            }
          ],
          "internalType": "struct TodoList.Task[]",
          "name": "",
          "type": "tuple[]"
        }
      ],
      "stateMutability": "view",
      "type": "function"
    },
    {
      "inputs": [
        {
          "internalType": "uint256",
          "name": "",
          "type": "uint256"
        }
      ],
      "name": "tasks",
      "outputs": [
        {
          "internalType": "string",
          "name": "content",
          "type": "string"
        },
        {
          "internalType": "bool",
          "name": "completed",
          "type": "bool"
        }
      ],
      "stateMutability": "view",
      "type": "function"
    }
  ],
  "bytecode": "0x608060405234801561001057600080fd5b5061084a806100206000396000f3fe608060405234801561001057600080fd5b50600436106100415760003560e01c806304a87e381461004657806367238562146100645780638d97767214610080575b600080fd5b61004e6100b1565b60405161005b91906105eb565b60405180910390f35b61007e6004803603810190610079919061042b565b6101bd565b005b61009a6004803603810190610095919061046c565b610242565b6040516100a892919061060d565b60405180910390f35b60606000805480602002602001604051908101604052809291908181526020016000905b828210156101b457838290600052602060002090600202016040518060400160405290816000820180546101089061075c565b80601f01602080910402602001604051908101604052809291908181526020018280546101349061075c565b80156101815780601f1061015657610100808354040283529160200191610181565b820191906000526020600020905b81548152906001019060200180831161016457829003601f168201915b505050505081526020016001820160009054906101000a900460ff161515151581525050815260200190600101906100d5565b50505050905090565b60006040518060400160405280838152602001600015158152509080600181540180825580915050600190039060005260206000209060020201600090919091909150600082015181600001908051906020019061021c92919061030b565b5060208201518160010160006101000a81548160ff021916908315150217905550505050565b6000818154811061025257600080fd5b90600052602060002090600202016000915090508060000180546102759061075c565b80601f01602080910402602001604051908101604052809291908181526020018280546102a19061075c565b80156102ee5780601f106102c3576101008083540402835291602001916102ee565b820191906000526020600020905b8154815290600101906020018083116102d157829003601f168201915b5050505050908060010160009054906101000a900460ff16905082565b8280546103179061075c565b90600052602060002090601f0160209004810192826103395760008555610380565b82601f1061035257805160ff1916838001178555610380565b82800160010185558215610380579182015b8281111561037f578251825591602001919060010190610364565b5b50905061038d9190610391565b5090565b5b808211156103aa576000816000905550600101610392565b5090565b60006103c16103bc8461066e565b61063d565b9050828152602081018484840111156103d957600080fd5b6103e484828561071a565b509392505050565b600082601f8301126103fd57600080fd5b813561040d8482602086016103ae565b91505092915050565b600081359050610425816107fd565b92915050565b60006020828403121561043d57600080fd5b600082013567ffffffffffffffff81111561045757600080fd5b610463848285016103ec565b91505092915050565b60006020828403121561047e57600080fd5b600061048c84828501610416565b91505092915050565b60006104a183836105ae565b905092915050565b60006104b4826106ae565b6104be81856106d1565b9350836020820285016104d08561069e565b8060005b8581101561050c57848403895281516104ed8582610495565b94506104f8836106c4565b925060208a019950506001810190506104d4565b50829750879550505050505092915050565b61052781610704565b82525050565b61053681610704565b82525050565b6000610547826106b9565b61055181856106e2565b9350610561818560208601610729565b61056a816107ec565b840191505092915050565b6000610580826106b9565b61058a81856106f3565b935061059a818560208601610729565b6105a3816107ec565b840191505092915050565b600060408301600083015184820360008601526105cb828261053c565b91505060208301516105e0602086018261051e565b508091505092915050565b6000602082019050818103600083015261060581846104a9565b905092915050565b600060408201905081810360008301526106278185610575565b9050610636602083018461052d565b9392505050565b6000604051905081810181811067ffffffffffffffff82111715610664576106636107bd565b5b8060405250919050565b600067ffffffffffffffff821115610689576106886107bd565b5b601f19601f8301169050602081019050919050565b6000819050602082019050919050565b600081519050919050565b600081519050919050565b6000602082019050919050565b600082825260208201905092915050565b600082825260208201905092915050565b600082825260208201905092915050565b60008115159050919050565b6000819050919050565b82818337600083830152505050565b60005b8381101561074757808201518184015260208101905061072c565b83811115610756576000848401525b50505050565b6000600282049050600182168061077457607f821691505b602082108114156107885761078761078e565b5b50919050565b7f4e487b7100000000000000000000000000000000000000000000000000000000600052602260045260246000fd5b7f4e487b7100000000000000000000000000000000000000000000000000000000600052604160045260246000fd5b6000601f19601f8301169050919050565b61080681610710565b811461081157600080fd5b5056fea26469706673582212202f6f33aa4c54af71121df5261744bdb1490ba693cad1370980dd920e1cf8c61f64736f6c63430008000033",
  "linkReferences": {},
  "deployedLinkReferences": {}
}